{
  "contractName": "Donation",
  "abi": [
    {
      "constant": true,
      "inputs": [
        {
          "name": "",
          "type": "address"
        }
      ],
      "name": "userAddToName",
      "outputs": [
        {
          "name": "",
          "type": "string"
        }
      ],
      "payable": false,
      "stateMutability": "view",
      "type": "function"
    },
    {
      "constant": true,
      "inputs": [
        {
          "name": "",
          "type": "address"
        }
      ],
      "name": "myDeal",
      "outputs": [
        {
          "name": "",
          "type": "uint256"
        }
      ],
      "payable": false,
      "stateMutability": "view",
      "type": "function"
    },
    {
      "inputs": [],
      "payable": true,
      "stateMutability": "payable",
      "type": "constructor"
    },
    {
      "payable": true,
      "stateMutability": "payable",
      "type": "fallback"
    },
    {
      "constant": false,
      "inputs": [],
      "name": "deposit",
      "outputs": [],
      "payable": true,
      "stateMutability": "payable",
      "type": "function"
    },
    {
      "constant": false,
      "inputs": [
        {
          "name": "_name",
          "type": "string"
        }
      ],
      "name": "setName",
      "outputs": [],
      "payable": false,
      "stateMutability": "nonpayable",
      "type": "function"
    },
    {
      "constant": true,
      "inputs": [
        {
          "name": "add",
          "type": "address"
        }
      ],
      "name": "getName",
      "outputs": [
        {
          "name": "",
          "type": "string"
        }
      ],
      "payable": false,
      "stateMutability": "view",
      "type": "function"
    },
    {
      "constant": false,
      "inputs": [
        {
          "name": "_donationPoint",
          "type": "address"
        },
        {
          "name": "_money",
          "type": "uint256"
        },
        {
          "name": "_subject",
          "type": "string"
        },
        {
          "name": "_goalpoint",
          "type": "uint256"
        }
      ],
      "name": "newDeal",
      "outputs": [],
      "payable": true,
      "stateMutability": "payable",
      "type": "function"
    },
    {
      "constant": true,
      "inputs": [],
      "name": "getDealCnt",
      "outputs": [
        {
          "name": "",
          "type": "uint256"
        }
      ],
      "payable": false,
      "stateMutability": "view",
      "type": "function"
    },
    {
      "constant": false,
      "inputs": [],
      "name": "getOwner",
      "outputs": [
        {
          "name": "",
          "type": "address"
        }
      ],
      "payable": false,
      "stateMutability": "nonpayable",
      "type": "function"
    },
    {
      "constant": true,
      "inputs": [
        {
          "name": "add",
          "type": "address"
        }
      ],
      "name": "getDealIdx",
      "outputs": [
        {
          "name": "",
          "type": "uint256"
        }
      ],
      "payable": false,
      "stateMutability": "view",
      "type": "function"
    },
    {
      "constant": true,
      "inputs": [
        {
          "name": "_dealIdx",
          "type": "uint256"
        }
      ],
      "name": "getSubject",
      "outputs": [
        {
          "name": "",
          "type": "string"
        }
      ],
      "payable": false,
      "stateMutability": "view",
      "type": "function"
    },
    {
      "constant": true,
      "inputs": [
        {
          "name": "_dealIdx",
          "type": "uint256"
        }
      ],
      "name": "getGoal",
      "outputs": [
        {
          "name": "",
          "type": "uint256"
        }
      ],
      "payable": false,
      "stateMutability": "view",
      "type": "function"
    },
    {
      "constant": true,
      "inputs": [
        {
          "name": "_dealIdx",
          "type": "uint256"
        }
      ],
      "name": "getUserAdd",
      "outputs": [
        {
          "name": "",
          "type": "address"
        }
      ],
      "payable": false,
      "stateMutability": "view",
      "type": "function"
    },
    {
      "constant": true,
      "inputs": [],
      "name": "getFirstIndex",
      "outputs": [
        {
          "name": "",
          "type": "uint256"
        }
      ],
      "payable": false,
      "stateMutability": "view",
      "type": "function"
    },
    {
      "constant": true,
      "inputs": [],
      "name": "getBalance",
      "outputs": [
        {
          "name": "",
          "type": "uint256"
        }
      ],
      "payable": false,
      "stateMutability": "view",
      "type": "function"
    },
    {
      "constant": false,
      "inputs": [
        {
          "name": "_user",
          "type": "address"
        }
      ],
      "name": "stateChangetoSucceed",
      "outputs": [],
      "payable": true,
      "stateMutability": "payable",
      "type": "function"
    },
    {
      "constant": false,
      "inputs": [
        {
          "name": "_user",
          "type": "address"
        }
      ],
      "name": "stateChangetoFailed",
      "outputs": [],
      "payable": true,
      "stateMutability": "payable",
      "type": "function"
    }
  ],
  "bytecode": "0x60806040526001600255600160035566038d7ea4c68000600655336000806101000a81548173ffffffffffffffffffffffffffffffffffffffff021916908373ffffffffffffffffffffffffffffffffffffffff1602179055506117be806100686000396000f3fe6080604052600436106100f35760003560e01c80638d431b8c1161008a578063d0e30db011610059578063d0e30db014610680578063df6ed6cb1461068a578063f6dd0187146106d9578063f8f9ad911461078d576100f3565b80638d431b8c1461042357806394e11d491461049e578063a87632e8146104c9578063c47f0027146105b8576100f3565b80635b6624d8116100c65780635b6624d8146102595780635ccc2b5b1461029d5780635fd4b08a14610302578063893d20e8146103cc576100f3565b806312065fe0146100f5578063159f6982146101205780632745f8431461014b57806327debf291461018f575b005b34801561010157600080fd5b5061010a6107f2565b6040518082815260200191505060405180910390f35b34801561012c57600080fd5b50610135610811565b6040518082815260200191505060405180910390f35b61018d6004803603602081101561016157600080fd5b81019080803573ffffffffffffffffffffffffffffffffffffffff16906020019092919050505061081b565b005b34801561019b57600080fd5b506101de600480360360208110156101b257600080fd5b81019080803573ffffffffffffffffffffffffffffffffffffffff169060200190929190505050610c7b565b6040518080602001828103825283818151815260200191508051906020019080838360005b8381101561021e578082015181840152602081019050610203565b50505050905090810190601f16801561024b5780820380516001836020036101000a031916815260200191505b509250505060405180910390f35b61029b6004803603602081101561026f57600080fd5b81019080803573ffffffffffffffffffffffffffffffffffffffff169060200190929190505050610d2b565b005b3480156102a957600080fd5b506102ec600480360360208110156102c057600080fd5b81019080803573ffffffffffffffffffffffffffffffffffffffff169060200190929190505050610f6f565b6040518082815260200191505060405180910390f35b34801561030e57600080fd5b506103516004803603602081101561032557600080fd5b81019080803573ffffffffffffffffffffffffffffffffffffffff169060200190929190505050610f87565b6040518080602001828103825283818151815260200191508051906020019080838360005b83811015610391578082015181840152602081019050610376565b50505050905090810190601f1680156103be5780820380516001836020036101000a031916815260200191505b509250505060405180910390f35b3480156103d857600080fd5b506103e1611068565b604051808273ffffffffffffffffffffffffffffffffffffffff1673ffffffffffffffffffffffffffffffffffffffff16815260200191505060405180910390f35b34801561042f57600080fd5b5061045c6004803603602081101561044657600080fd5b8101908080359060200190929190505050611091565b604051808273ffffffffffffffffffffffffffffffffffffffff1673ffffffffffffffffffffffffffffffffffffffff16815260200191505060405180910390f35b3480156104aa57600080fd5b506104b36110ea565b6040518082815260200191505060405180910390f35b6105b6600480360360808110156104df57600080fd5b81019080803573ffffffffffffffffffffffffffffffffffffffff169060200190929190803590602001909291908035906020019064010000000081111561052657600080fd5b82018360208201111561053857600080fd5b8035906020019184600183028401116401000000008311171561055a57600080fd5b91908080601f016020809104026020016040519081016040528093929190818152602001838380828437600081840152601f19601f820116905080830192505050505050509192919290803590602001909291905050506110f4565b005b3480156105c457600080fd5b5061067e600480360360208110156105db57600080fd5b81019080803590602001906401000000008111156105f857600080fd5b82018360208201111561060a57600080fd5b8035906020019184600183028401116401000000008311171561062c57600080fd5b91908080601f016020809104026020016040519081016040528093929190818152602001838380828437600081840152601f19601f8201169050808301925050505050505091929192905050506113f4565b005b61068861144b565b005b34801561069657600080fd5b506106c3600480360360208110156106ad57600080fd5b81019080803590602001909291905050506114a6565b6040518082815260200191505060405180910390f35b3480156106e557600080fd5b50610712600480360360208110156106fc57600080fd5b81019080803590602001909291905050506114df565b6040518080602001828103825283818151815260200191508051906020019080838360005b83811015610752578082015181840152602081019050610737565b50505050905090810190601f16801561077f5780820380516001836020036101000a031916815260200191505b509250505060405180910390f35b34801561079957600080fd5b506107dc600480360360208110156107b057600080fd5b81019080803573ffffffffffffffffffffffffffffffffffffffff1690602001909291905050506115b0565b6040518082815260200191505060405180910390f35b60003073ffffffffffffffffffffffffffffffffffffffff1631905090565b6000600254905090565b6000809054906101000a900473ffffffffffffffffffffffffffffffffffffffff1673ffffffffffffffffffffffffffffffffffffffff163373ffffffffffffffffffffffffffffffffffffffff161461087457600080fd5b6000600460008373ffffffffffffffffffffffffffffffffffffffff1673ffffffffffffffffffffffffffffffffffffffff16815260200190815260200160002054905060008114156108c657600080fd5b8080600190039150506108d76115f9565b600182815481106108e457fe5b90600052602060002090600702016040518060e0016040529081600082015481526020016001820160009054906101000a900473ffffffffffffffffffffffffffffffffffffffff1673ffffffffffffffffffffffffffffffffffffffff1673ffffffffffffffffffffffffffffffffffffffff1681526020016002820160009054906101000a900473ffffffffffffffffffffffffffffffffffffffff1673ffffffffffffffffffffffffffffffffffffffff1673ffffffffffffffffffffffffffffffffffffffff16815260200160038201548152602001600482018054600181600116156101000203166002900480601f016020809104026020016040519081016040528092919081815260200182805460018160011615610100020316600290048015610a565780601f10610a2b57610100808354040283529160200191610a56565b820191906000526020600020905b815481529060010190602001808311610a3957829003601f168201915b50505050508152602001600582015481526020016006820160009054906101000a900460ff166002811115610a8757fe5b6002811115610a9257fe5b81525050905060006002811115610aa557fe5b8160c001516002811115610ab557fe5b14610b28576040517f08c379a00000000000000000000000000000000000000000000000000000000081526004018080602001828103825260128152602001807f696e76616c6964204465616c207374617465000000000000000000000000000081525060200191505060405180910390fd5b8060600151610b356107f2565b1015610ba9576040517f08c379a00000000000000000000000000000000000000000000000000000000081526004018080602001828103825260108152602001807f6e6f7420656e6f756768204d6f6e65790000000000000000000000000000000081525060200191505060405180910390fd5b60018160c001906002811115610bbb57fe5b90816002811115610bc857fe5b81525050806020015173ffffffffffffffffffffffffffffffffffffffff166108fc6006548360600151029081150290604051600060405180830381858888f19350505050158015610c1e573d6000803e3d6000fd5b506000600460008573ffffffffffffffffffffffffffffffffffffffff1673ffffffffffffffffffffffffffffffffffffffff16815260200190815260200160002081905550600360008154809291906001019190505550505050565b60056020528060005260406000206000915090508054600181600116156101000203166002900480601f016020809104026020016040519081016040528092919081815260200182805460018160011615610100020316600290048015610d235780601f10610cf857610100808354040283529160200191610d23565b820191906000526020600020905b815481529060010190602001808311610d0657829003601f168201915b505050505081565b6000809054906101000a900473ffffffffffffffffffffffffffffffffffffffff1673ffffffffffffffffffffffffffffffffffffffff163373ffffffffffffffffffffffffffffffffffffffff1614610d8457600080fd5b6000600460008373ffffffffffffffffffffffffffffffffffffffff1673ffffffffffffffffffffffffffffffffffffffff1681526020019081526020016000205490506000811415610dd657600080fd5b80806001900391505060006002811115610dec57fe5b60018281548110610df957fe5b906000526020600020906007020160060160009054906101000a900460ff166002811115610e2357fe5b14610e2d57600080fd5b600260018281548110610e3c57fe5b906000526020600020906007020160060160006101000a81548160ff02191690836002811115610e6857fe5b021790555060018181548110610e7a57fe5b906000526020600020906007020160020160009054906101000a900473ffffffffffffffffffffffffffffffffffffffff1673ffffffffffffffffffffffffffffffffffffffff166108fc60065460018481548110610ed557fe5b906000526020600020906007020160030154029081150290604051600060405180830381858888f19350505050158015610f13573d6000803e3d6000fd5b506000600460008473ffffffffffffffffffffffffffffffffffffffff1673ffffffffffffffffffffffffffffffffffffffff168152602001908152602001600020819055506003600081548092919060010191905055505050565b60046020528060005260406000206000915090505481565b6060600560008373ffffffffffffffffffffffffffffffffffffffff1673ffffffffffffffffffffffffffffffffffffffff1681526020019081526020016000208054600181600116156101000203166002900480601f01602080910402602001604051908101604052809291908181526020018280546001816001161561010002031660029004801561105c5780601f106110315761010080835404028352916020019161105c565b820191906000526020600020905b81548152906001019060200180831161103f57829003601f168201915b50505050509050919050565b60008060009054906101000a900473ffffffffffffffffffffffffffffffffffffffff16905090565b60006002548211156110a257600080fd5b6001808303815481106110b157fe5b906000526020600020906007020160010160009054906101000a900473ffffffffffffffffffffffffffffffffffffffff169050919050565b6000600354905090565b600654830234101561116e576040517f08c379a00000000000000000000000000000000000000000000000000000000081526004018080602001828103825260108152602001807f6e6f7420656e6f756768206d6f6e65790000000000000000000000000000000081525060200191505060405180910390fd5b6000600460003373ffffffffffffffffffffffffffffffffffffffff1673ffffffffffffffffffffffffffffffffffffffff16815260200190815260200160002054146111ba57600080fd5b60016040518060e0016040528060025481526020013373ffffffffffffffffffffffffffffffffffffffff1681526020018673ffffffffffffffffffffffffffffffffffffffff1681526020018581526020018481526020018381526020016000600281111561122657fe5b815250908060018154018082558091505090600182039060005260206000209060070201600090919290919091506000820151816000015560208201518160010160006101000a81548173ffffffffffffffffffffffffffffffffffffffff021916908373ffffffffffffffffffffffffffffffffffffffff16021790555060408201518160020160006101000a81548173ffffffffffffffffffffffffffffffffffffffff021916908373ffffffffffffffffffffffffffffffffffffffff16021790555060608201518160030155608082015181600401908051906020019061131292919061166d565b5060a0820151816005015560c08201518160060160006101000a81548160ff0219169083600281111561134157fe5b0217905550505050600254600460003373ffffffffffffffffffffffffffffffffffffffff1673ffffffffffffffffffffffffffffffffffffffff168152602001908152602001600020819055503373ffffffffffffffffffffffffffffffffffffffff166108fc600654850234039081150290604051600060405180830381858888f193505050501580156113db573d6000803e3d6000fd5b5060026000815480929190600101919050555050505050565b80600560003373ffffffffffffffffffffffffffffffffffffffff1673ffffffffffffffffffffffffffffffffffffffff16815260200190815260200160002090805190602001906114479291906116ed565b5050565b6000809054906101000a900473ffffffffffffffffffffffffffffffffffffffff1673ffffffffffffffffffffffffffffffffffffffff163373ffffffffffffffffffffffffffffffffffffffff16146114a457600080fd5b565b60006002548211156114b757600080fd5b6001808303815481106114c657fe5b9060005260206000209060070201600501549050919050565b60606002548211156114f057600080fd5b6001808303815481106114ff57fe5b90600052602060002090600702016004018054600181600116156101000203166002900480601f0160208091040260200160405190810160405280929190818152602001828054600181600116156101000203166002900480156115a45780601f10611579576101008083540402835291602001916115a4565b820191906000526020600020905b81548152906001019060200180831161158757829003601f168201915b50505050509050919050565b6000600460008373ffffffffffffffffffffffffffffffffffffffff1673ffffffffffffffffffffffffffffffffffffffff168152602001908152602001600020549050919050565b6040518060e0016040528060008152602001600073ffffffffffffffffffffffffffffffffffffffff168152602001600073ffffffffffffffffffffffffffffffffffffffff1681526020016000815260200160608152602001600081526020016000600281111561166757fe5b81525090565b828054600181600116156101000203166002900490600052602060002090601f016020900481019282601f106116ae57805160ff19168380011785556116dc565b828001600101855582156116dc579182015b828111156116db5782518255916020019190600101906116c0565b5b5090506116e9919061176d565b5090565b828054600181600116156101000203166002900490600052602060002090601f016020900481019282601f1061172e57805160ff191683800117855561175c565b8280016001018555821561175c579182015b8281111561175b578251825591602001919060010190611740565b5b509050611769919061176d565b5090565b61178f91905b8082111561178b576000816000905550600101611773565b5090565b9056fea165627a7a72305820013c92243026297236e608171b8e8df6660cc8855e3fe7c5f8b28ddc371ffb2e0029",
  "source": "pragma solidity ^0.5.0;\r\n\r\ncontract Donation{\r\n\r\n    address payable owner; // 우리의 주소\r\n\r\n    enum DealState {\r\n        pending,\r\n        succeed,\r\n        failed\r\n    }\r\n    //현재 딜의 상태를 나타낸다. 만약 다른 상태를 생성하고 싶다면 해당 란에서만 수정하면 된다.\r\n\r\n    struct Deal {\r\n        uint dealId; // 딜을 구별하기 위한 용도\r\n        address payable user; // 딜을 제안하는 유저\r\n        address payable donationPoint; // 만약 실패시 돈이 가는 곳\r\n        uint userMoney; // 유저가 딜한 금액\r\n        string subject;\r\n        uint goalpoint;\r\n        DealState dealState; // 현재 딜의 상태\r\n    }\r\n\r\n    Deal[] Deals; //딜 배열\r\n    uint dealIndex=1; //딜 인덱스\r\n    uint firstIndex=1;\r\n    mapping(address=>uint) public myDeal;\r\n    mapping(address=>string) public userAddToName;\r\n    \r\n    uint unit = 0.001 ether; //돈의 단위\r\n\r\n    function deposit() public payable {  \r\n        require(msg.sender == owner);\r\n    }\r\n\r\n    function setName(string memory _name) public {\r\n        userAddToName[msg.sender]=_name;\r\n    } \r\n\r\n    function getName(address add) public view returns(string memory){\r\n        return userAddToName[add];\r\n    } \r\n\r\n    function newDeal(address payable _donationPoint, uint _money,string memory _subject,uint _goalpoint) public payable {\r\n        require (msg.value >= _money * unit, \"not enough money\");\r\n        require(myDeal[msg.sender]==0);\r\n        //딜 배열에 딜을 추가한다.\r\n        Deals.push(Deal(dealIndex, msg.sender, _donationPoint, _money,_subject,_goalpoint, DealState.pending));\r\n        myDeal[msg.sender]=dealIndex;\r\n        //잔돈을 반환한다.\r\n        msg.sender.transfer(msg.value - _money * unit);\r\n        dealIndex++;\r\n    }\r\n\r\n    function getDealCnt() public view returns(uint){\r\n        return dealIndex;\r\n    }\r\n\r\n    function getOwner() public returns(address){\r\n        return owner;\r\n    }\r\n    \r\n    function getDealIdx(address add)public view returns(uint){\r\n        return myDeal[add];\r\n    }\r\n    \r\n    function getSubject(uint _dealIdx) public view returns(string memory) {\r\n      require(_dealIdx<=dealIndex);\r\n      return Deals[_dealIdx-1].subject;  \r\n    }\r\n    \r\n    function getGoal(uint _dealIdx) public view returns(uint) {\r\n      require(_dealIdx<=dealIndex);\r\n      return Deals[_dealIdx-1].goalpoint;  \r\n    }\r\n\r\n    function getUserAdd(uint _dealIdx) public view returns(address) {\r\n      require(_dealIdx<=dealIndex);\r\n      return Deals[_dealIdx-1].user;  \r\n    }\r\n\r\n    function getFirstIndex() public view returns(uint){\r\n        return firstIndex;\r\n    }\r\n    \r\n    function getBalance() public view returns (uint) {\r\n        return address(this).balance;\r\n    }\r\n   \r\n    //성공시 owner 상태를 바꿀 수 있다.\r\n    function stateChangetoSucceed(address _user) public onlyOwner payable{\r\n        uint id = myDeal[_user];\r\n        require(id!=0);\r\n        id--;\r\n        Deal memory tmpDeal = Deals[id]; \r\n        //pending 상태여야만 상태를 바꿀 수 있다.\r\n        require(tmpDeal.dealState == DealState.pending, \"invalid Deal state\");\r\n        //기업 자금이 약속한 금액보다 많아야 한다.\r\n        require(getBalance() >= tmpDeal.userMoney, \"not enough Money\");\r\n        tmpDeal.dealState = DealState.succeed;\r\n        //유저의 돈을 환급한다\r\n        tmpDeal.user.transfer(tmpDeal.userMoney * unit);\r\n        myDeal[_user]=0;\r\n        firstIndex++;\r\n    }\r\n    \r\n    //실패시 owner 상태를 바꿀 수 있다.\r\n    function stateChangetoFailed(address _user) public onlyOwner payable{\r\n        uint id = myDeal[_user];\r\n        require(id!=0);\r\n        id--;\r\n        require(Deals[id].dealState == DealState.pending);\r\n        Deals[id].dealState = DealState.failed;\r\n        //실패시 유저의 돈을 기부주소로 보낸다.\r\n        Deals[id].donationPoint.transfer(Deals[id].userMoney * unit);\r\n        myDeal[_user]=0;\r\n        firstIndex++;\r\n    }\r\n    \r\n    modifier onlyOwner() {\r\n        require(msg.sender == owner);\r\n        _;\r\n    }\r\n\r\n    constructor() public payable{\r\n        owner = msg.sender;\r\n    }\r\n\r\n    function() external payable{\r\n    }\r\n}",
  "sourcePath": "D:/klaytn_pj/contracts/Donation.sol",
  "compiler": {
    "name": "solc",
    "version": "0.5.8+commit.23d335f2.Emscripten.clang"
  },
  "schemaVersion": "3.0.16",
  "updatedAt": "2019-09-27T02:50:49.251Z",
  "devdoc": {
    "methods": {}
  },
  "userdoc": {
    "methods": {}
  }
}